{
  "_format": "hh-sol-artifact-1",
  "contractName": "RDAsset",
  "sourceName": "contracts/RDAsset.sol",
  "abi": [
    {
      "inputs": [
        {
          "internalType": "uint256",
          "name": "_fixedSupply",
          "type": "uint256"
        },
        {
          "internalType": "address",
          "name": "usdtAddress",
          "type": "address"
        }
      ],
      "stateMutability": "nonpayable",
      "type": "constructor"
    },
    {
      "anonymous": false,
      "inputs": [
        {
          "indexed": true,
          "internalType": "address",
          "name": "owner",
          "type": "address"
        },
        {
          "indexed": true,
          "internalType": "address",
          "name": "spender",
          "type": "address"
        },
        {
          "indexed": false,
          "internalType": "uint256",
          "name": "value",
          "type": "uint256"
        }
      ],
      "name": "Approval",
      "type": "event"
    },
    {
      "anonymous": false,
      "inputs": [
        {
          "indexed": true,
          "internalType": "address",
          "name": "from",
          "type": "address"
        },
        {
          "indexed": true,
          "internalType": "address",
          "name": "to",
          "type": "address"
        },
        {
          "indexed": false,
          "internalType": "uint256",
          "name": "value",
          "type": "uint256"
        }
      ],
      "name": "Transfer",
      "type": "event"
    },
    {
      "inputs": [],
      "name": "admin",
      "outputs": [
        {
          "internalType": "address",
          "name": "",
          "type": "address"
        }
      ],
      "stateMutability": "view",
      "type": "function"
    },
    {
      "inputs": [
        {
          "internalType": "address",
          "name": "owner",
          "type": "address"
        },
        {
          "internalType": "address",
          "name": "spender",
          "type": "address"
        }
      ],
      "name": "allowance",
      "outputs": [
        {
          "internalType": "uint256",
          "name": "",
          "type": "uint256"
        }
      ],
      "stateMutability": "view",
      "type": "function"
    },
    {
      "inputs": [
        {
          "internalType": "address",
          "name": "spender",
          "type": "address"
        },
        {
          "internalType": "uint256",
          "name": "amount",
          "type": "uint256"
        }
      ],
      "name": "approve",
      "outputs": [
        {
          "internalType": "bool",
          "name": "",
          "type": "bool"
        }
      ],
      "stateMutability": "nonpayable",
      "type": "function"
    },
    {
      "inputs": [
        {
          "internalType": "address",
          "name": "account",
          "type": "address"
        }
      ],
      "name": "balanceOf",
      "outputs": [
        {
          "internalType": "uint256",
          "name": "",
          "type": "uint256"
        }
      ],
      "stateMutability": "view",
      "type": "function"
    },
    {
      "inputs": [],
      "name": "decimals",
      "outputs": [
        {
          "internalType": "uint8",
          "name": "",
          "type": "uint8"
        }
      ],
      "stateMutability": "view",
      "type": "function"
    },
    {
      "inputs": [
        {
          "internalType": "address",
          "name": "spender",
          "type": "address"
        },
        {
          "internalType": "uint256",
          "name": "subtractedValue",
          "type": "uint256"
        }
      ],
      "name": "decreaseAllowance",
      "outputs": [
        {
          "internalType": "bool",
          "name": "",
          "type": "bool"
        }
      ],
      "stateMutability": "nonpayable",
      "type": "function"
    },
    {
      "inputs": [
        {
          "internalType": "uint256",
          "name": "_tokenAmount",
          "type": "uint256"
        }
      ],
      "name": "depositRent",
      "outputs": [],
      "stateMutability": "payable",
      "type": "function"
    },
    {
      "inputs": [],
      "name": "fixedSupply",
      "outputs": [
        {
          "internalType": "uint256",
          "name": "",
          "type": "uint256"
        }
      ],
      "stateMutability": "view",
      "type": "function"
    },
    {
      "inputs": [],
      "name": "getRentalBalance",
      "outputs": [
        {
          "internalType": "uint256",
          "name": "",
          "type": "uint256"
        }
      ],
      "stateMutability": "view",
      "type": "function"
    },
    {
      "inputs": [],
      "name": "getShareBalance",
      "outputs": [
        {
          "internalType": "uint256",
          "name": "",
          "type": "uint256"
        }
      ],
      "stateMutability": "view",
      "type": "function"
    },
    {
      "inputs": [],
      "name": "getShareholderCurrentProceedsAvailable",
      "outputs": [
        {
          "internalType": "uint256",
          "name": "",
          "type": "uint256"
        }
      ],
      "stateMutability": "view",
      "type": "function"
    },
    {
      "inputs": [],
      "name": "getShareholderTotalProceedsGained",
      "outputs": [
        {
          "internalType": "uint256",
          "name": "",
          "type": "uint256"
        }
      ],
      "stateMutability": "view",
      "type": "function"
    },
    {
      "inputs": [
        {
          "internalType": "address",
          "name": "spender",
          "type": "address"
        },
        {
          "internalType": "uint256",
          "name": "addedValue",
          "type": "uint256"
        }
      ],
      "name": "increaseAllowance",
      "outputs": [
        {
          "internalType": "bool",
          "name": "",
          "type": "bool"
        }
      ],
      "stateMutability": "nonpayable",
      "type": "function"
    },
    {
      "inputs": [],
      "name": "name",
      "outputs": [
        {
          "internalType": "string",
          "name": "",
          "type": "string"
        }
      ],
      "stateMutability": "view",
      "type": "function"
    },
    {
      "inputs": [
        {
          "internalType": "uint256",
          "name": "_amountShares",
          "type": "uint256"
        }
      ],
      "name": "purchaseShares",
      "outputs": [],
      "stateMutability": "payable",
      "type": "function"
    },
    {
      "inputs": [
        {
          "internalType": "address",
          "name": "",
          "type": "address"
        }
      ],
      "name": "rentalBalances",
      "outputs": [
        {
          "internalType": "uint256",
          "name": "",
          "type": "uint256"
        }
      ],
      "stateMutability": "view",
      "type": "function"
    },
    {
      "inputs": [
        {
          "internalType": "uint256",
          "name": "_amountShares",
          "type": "uint256"
        }
      ],
      "name": "sellShares",
      "outputs": [],
      "stateMutability": "payable",
      "type": "function"
    },
    {
      "inputs": [],
      "name": "symbol",
      "outputs": [
        {
          "internalType": "string",
          "name": "",
          "type": "string"
        }
      ],
      "stateMutability": "view",
      "type": "function"
    },
    {
      "inputs": [],
      "name": "totalRentalIncome",
      "outputs": [
        {
          "internalType": "uint256",
          "name": "",
          "type": "uint256"
        }
      ],
      "stateMutability": "view",
      "type": "function"
    },
    {
      "inputs": [],
      "name": "totalSharesPurchased",
      "outputs": [
        {
          "internalType": "uint256",
          "name": "",
          "type": "uint256"
        }
      ],
      "stateMutability": "view",
      "type": "function"
    },
    {
      "inputs": [],
      "name": "totalSupply",
      "outputs": [
        {
          "internalType": "uint256",
          "name": "",
          "type": "uint256"
        }
      ],
      "stateMutability": "view",
      "type": "function"
    },
    {
      "inputs": [
        {
          "internalType": "address",
          "name": "to",
          "type": "address"
        },
        {
          "internalType": "uint256",
          "name": "amount",
          "type": "uint256"
        }
      ],
      "name": "transfer",
      "outputs": [
        {
          "internalType": "bool",
          "name": "",
          "type": "bool"
        }
      ],
      "stateMutability": "nonpayable",
      "type": "function"
    },
    {
      "inputs": [
        {
          "internalType": "address",
          "name": "from",
          "type": "address"
        },
        {
          "internalType": "address",
          "name": "to",
          "type": "address"
        },
        {
          "internalType": "uint256",
          "name": "amount",
          "type": "uint256"
        }
      ],
      "name": "transferFrom",
      "outputs": [
        {
          "internalType": "bool",
          "name": "",
          "type": "bool"
        }
      ],
      "stateMutability": "nonpayable",
      "type": "function"
    },
    {
      "inputs": [],
      "name": "usdt",
      "outputs": [
        {
          "internalType": "contract IERC20",
          "name": "",
          "type": "address"
        }
      ],
      "stateMutability": "view",
      "type": "function"
    },
    {
      "inputs": [],
      "name": "withdrawProceeds",
      "outputs": [],
      "stateMutability": "nonpayable",
      "type": "function"
    },
    {
      "stateMutability": "payable",
      "type": "receive"
    }
  ],
  "bytecode": "0x60806040523480156200001157600080fd5b5060405162002f2b38038062002f2b833981810160405281019062000037919062000474565b6040518060400160405280601481526020017f52656e74204469676974616c20417373657420310000000000000000000000008152506040518060400160405280600481526020017f52444131000000000000000000000000000000000000000000000000000000008152508160039080519060200190620000bb9291906200031f565b508060049080519060200190620000d49291906200031f565b50505033600560006101000a81548173ffffffffffffffffffffffffffffffffffffffff021916908373ffffffffffffffffffffffffffffffffffffffff16021790555080600660006101000a81548173ffffffffffffffffffffffffffffffffffffffff021916908373ffffffffffffffffffffffffffffffffffffffff1602179055508160078190555062000194600560009054906101000a900473ffffffffffffffffffffffffffffffffffffffff16836200019c60201b60201c565b50506200065d565b600073ffffffffffffffffffffffffffffffffffffffff168273ffffffffffffffffffffffffffffffffffffffff1614156200020f576040517f08c379a000000000000000000000000000000000000000000000000000000000815260040162000206906200051c565b60405180910390fd5b62000223600083836200031560201b60201c565b80600260008282546200023791906200056d565b92505081905550806000808473ffffffffffffffffffffffffffffffffffffffff1673ffffffffffffffffffffffffffffffffffffffff16815260200190815260200160002060008282546200028e91906200056d565b925050819055508173ffffffffffffffffffffffffffffffffffffffff16600073ffffffffffffffffffffffffffffffffffffffff167fddf252ad1be2c89b69c2b068fc378daa952ba7f163c4a11628f55a4df523b3ef83604051620002f59190620005db565b60405180910390a362000311600083836200031a60201b60201c565b5050565b505050565b505050565b8280546200032d9062000627565b90600052602060002090601f0160209004810192826200035157600085556200039d565b82601f106200036c57805160ff19168380011785556200039d565b828001600101855582156200039d579182015b828111156200039c5782518255916020019190600101906200037f565b5b509050620003ac9190620003b0565b5090565b5b80821115620003cb576000816000905550600101620003b1565b5090565b600080fd5b6000819050919050565b620003e981620003d4565b8114620003f557600080fd5b50565b6000815190506200040981620003de565b92915050565b600073ffffffffffffffffffffffffffffffffffffffff82169050919050565b60006200043c826200040f565b9050919050565b6200044e816200042f565b81146200045a57600080fd5b50565b6000815190506200046e8162000443565b92915050565b600080604083850312156200048e576200048d620003cf565b5b60006200049e85828601620003f8565b9250506020620004b1858286016200045d565b9150509250929050565b600082825260208201905092915050565b7f45524332303a206d696e7420746f20746865207a65726f206164647265737300600082015250565b600062000504601f83620004bb565b91506200051182620004cc565b602082019050919050565b600060208201905081810360008301526200053781620004f5565b9050919050565b7f4e487b7100000000000000000000000000000000000000000000000000000000600052601160045260246000fd5b60006200057a82620003d4565b91506200058783620003d4565b9250827fffffffffffffffffffffffffffffffffffffffffffffffffffffffffffffffff03821115620005bf57620005be6200053e565b5b828201905092915050565b620005d581620003d4565b82525050565b6000602082019050620005f26000830184620005ca565b92915050565b7f4e487b7100000000000000000000000000000000000000000000000000000000600052602260045260246000fd5b600060028204905060018216806200064057607f821691505b60208210811415620006575762000656620005f8565b5b50919050565b6128be806200066d6000396000f3fe60806040526004361061016a5760003560e01c8063799be386116100d1578063ce613b5b1161008a578063df48981a11610064578063df48981a1461056a578063f6e96ced14610586578063f851a440146105a2578063ff99574b146105cd57610171565b8063ce613b5b146104c5578063da63ab1114610502578063dd62ed3e1461052d57610171565b8063799be386146103b35780637c666bd0146103de5780639038e6931461040957806395d89b4114610420578063a457c2d71461044b578063a9059cbb1461048857610171565b8063313ce56711610123578063313ce5671461029c57806339509351146102c75780634ba8ae81146103045780634f2fac9c14610320578063503985481461034b57806370a082311461037657610171565b806306fdde0314610176578063095ea7b3146101a157806318160ddd146101de5780631de288571461020957806323b872dd146102345780632f48ab7d1461027157610171565b3661017157005b600080fd5b34801561018257600080fd5b5061018b6105f8565b6040516101989190611bfe565b60405180910390f35b3480156101ad57600080fd5b506101c860048036038101906101c39190611cb9565b61068a565b6040516101d59190611d14565b60405180910390f35b3480156101ea57600080fd5b506101f36106ad565b6040516102009190611d3e565b60405180910390f35b34801561021557600080fd5b5061021e6106b7565b60405161022b9190611d3e565b60405180910390f35b34801561024057600080fd5b5061025b60048036038101906102569190611d59565b610701565b6040516102689190611d14565b60405180910390f35b34801561027d57600080fd5b50610286610730565b6040516102939190611e0b565b60405180910390f35b3480156102a857600080fd5b506102b1610756565b6040516102be9190611e42565b60405180910390f35b3480156102d357600080fd5b506102ee60048036038101906102e99190611cb9565b61075f565b6040516102fb9190611d14565b60405180910390f35b61031e60048036038101906103199190611e5d565b610796565b005b34801561032c57600080fd5b50610335610aa5565b6040516103429190611d3e565b60405180910390f35b34801561035757600080fd5b50610360610aef565b60405161036d9190611d3e565b60405180910390f35b34801561038257600080fd5b5061039d60048036038101906103989190611e8a565b610b39565b6040516103aa9190611d3e565b60405180910390f35b3480156103bf57600080fd5b506103c8610b81565b6040516103d59190611d3e565b60405180910390f35b3480156103ea57600080fd5b506103f3610b87565b6040516104009190611d3e565b60405180910390f35b34801561041557600080fd5b5061041e610b8d565b005b34801561042c57600080fd5b50610435610cb3565b6040516104429190611bfe565b60405180910390f35b34801561045757600080fd5b50610472600480360381019061046d9190611cb9565b610d45565b60405161047f9190611d14565b60405180910390f35b34801561049457600080fd5b506104af60048036038101906104aa9190611cb9565b610dbc565b6040516104bc9190611d14565b60405180910390f35b3480156104d157600080fd5b506104ec60048036038101906104e79190611e8a565b610ddf565b6040516104f99190611d3e565b60405180910390f35b34801561050e57600080fd5b50610517610df7565b6040516105249190611d3e565b60405180910390f35b34801561053957600080fd5b50610554600480360381019061054f9190611eb7565b610e3e565b6040516105619190611d3e565b60405180910390f35b610584600480360381019061057f9190611e5d565b610ec5565b005b6105a0600480360381019061059b9190611e5d565b61114e565b005b3480156105ae57600080fd5b506105b761126c565b6040516105c49190611f06565b60405180910390f35b3480156105d957600080fd5b506105e2611292565b6040516105ef9190611d3e565b60405180910390f35b60606003805461060790611f50565b80601f016020809104026020016040519081016040528092919081815260200182805461063390611f50565b80156106805780601f1061065557610100808354040283529160200191610680565b820191906000526020600020905b81548152906001019060200180831161066357829003601f168201915b5050505050905090565b600080610695611298565b90506106a28185856112a0565b600191505092915050565b6000600254905090565b6000600c60003373ffffffffffffffffffffffffffffffffffffffff1673ffffffffffffffffffffffffffffffffffffffff16815260200190815260200160002060020154905090565b60008061070c611298565b905061071985828561146b565b6107248585856114f7565b60019150509392505050565b600660009054906101000a900473ffffffffffffffffffffffffffffffffffffffff1681565b60006012905090565b60008061076a611298565b905061078b81858561077c8589610e3e565b6107869190611fb1565b6112a0565b600191505092915050565b60011515600c60003373ffffffffffffffffffffffffffffffffffffffff1673ffffffffffffffffffffffffffffffffffffffff16815260200190815260200160002060030160009054906101000a900460ff1615151461082c576040517f08c379a000000000000000000000000000000000000000000000000000000000815260040161082390612053565b60405180910390fd5b80600c60003373ffffffffffffffffffffffffffffffffffffffff1673ffffffffffffffffffffffffffffffffffffffff1681526020019081526020016000206002015410156108b1576040517f08c379a00000000000000000000000000000000000000000000000000000000081526004016108a8906120e5565b60405180910390fd5b80600660009054906101000a900473ffffffffffffffffffffffffffffffffffffffff1673ffffffffffffffffffffffffffffffffffffffff166370a08231306040518263ffffffff1660e01b815260040161090d9190611f06565b602060405180830381865afa15801561092a573d6000803e3d6000fd5b505050506040513d601f19601f8201168201806040525081019061094e919061211a565b101561098f576040517f08c379a0000000000000000000000000000000000000000000000000000000008152600401610986906121df565b60405180910390fd5b80600a60008282546109a191906121ff565b9250508190555080600c60003373ffffffffffffffffffffffffffffffffffffffff1673ffffffffffffffffffffffffffffffffffffffff16815260200190815260200160002060020160008282546109fa91906121ff565b92505081905550600660009054906101000a900473ffffffffffffffffffffffffffffffffffffffff1673ffffffffffffffffffffffffffffffffffffffff1663a9059cbb33836040518363ffffffff1660e01b8152600401610a5e929190612233565b6020604051808303816000875af1158015610a7d573d6000803e3d6000fd5b505050506040513d601f19601f82011682018060405250810190610aa19190612288565b5050565b6000600c60003373ffffffffffffffffffffffffffffffffffffffff1673ffffffffffffffffffffffffffffffffffffffff16815260200190815260200160002060000154905090565b6000600c60003373ffffffffffffffffffffffffffffffffffffffff1673ffffffffffffffffffffffffffffffffffffffff16815260200190815260200160002060010154905090565b60008060008373ffffffffffffffffffffffffffffffffffffffff1673ffffffffffffffffffffffffffffffffffffffff168152602001908152602001600020549050919050565b600a5481565b60085481565b60011515600c60003373ffffffffffffffffffffffffffffffffffffffff1673ffffffffffffffffffffffffffffffffffffffff16815260200190815260200160002060030160009054906101000a900460ff16151514610c23576040517f08c379a0000000000000000000000000000000000000000000000000000000008152600401610c1a90612053565b60405180910390fd5b6000600c60003373ffffffffffffffffffffffffffffffffffffffff1673ffffffffffffffffffffffffffffffffffffffff1681526020019081526020016000206001015411610ca8576040517f08c379a0000000000000000000000000000000000000000000000000000000008152600401610c9f90612327565b60405180910390fd5b610cb133611778565b565b606060048054610cc290611f50565b80601f0160208091040260200160405190810160405280929190818152602001828054610cee90611f50565b8015610d3b5780601f10610d1057610100808354040283529160200191610d3b565b820191906000526020600020905b815481529060010190602001808311610d1e57829003601f168201915b5050505050905090565b600080610d50611298565b90506000610d5e8286610e3e565b905083811015610da3576040517f08c379a0000000000000000000000000000000000000000000000000000000008152600401610d9a906123b9565b60405180910390fd5b610db082868684036112a0565b60019250505092915050565b600080610dc7611298565b9050610dd48185856114f7565b600191505092915050565b60096020528060005260406000206000915090505481565b6000600960003373ffffffffffffffffffffffffffffffffffffffff1673ffffffffffffffffffffffffffffffffffffffff16815260200190815260200160002054905090565b6000600160008473ffffffffffffffffffffffffffffffffffffffff1673ffffffffffffffffffffffffffffffffffffffff16815260200190815260200160002060008373ffffffffffffffffffffffffffffffffffffffff1673ffffffffffffffffffffffffffffffffffffffff16815260200190815260200160002054905092915050565b80600a6000828254610ed79190611fb1565b9250508190555060011515600c60003373ffffffffffffffffffffffffffffffffffffffff1673ffffffffffffffffffffffffffffffffffffffff16815260200190815260200160002060030160009054906101000a900460ff1615151415610f985780600c60003373ffffffffffffffffffffffffffffffffffffffff1673ffffffffffffffffffffffffffffffffffffffff1681526020019081526020016000206002016000828254610f8c9190611fb1565b925050819055506110a8565b600b339080600181540180825580915050600190039060005260206000200160009091909190916101000a81548173ffffffffffffffffffffffffffffffffffffffff021916908373ffffffffffffffffffffffffffffffffffffffff16021790555060006040518060800160405280600081526020016000815260200183815260200160011515815250905080600c60003373ffffffffffffffffffffffffffffffffffffffff1673ffffffffffffffffffffffffffffffffffffffff16815260200190815260200160002060008201518160000155602082015181600101556040820151816002015560608201518160030160006101000a81548160ff021916908315150217905550905050505b600660009054906101000a900473ffffffffffffffffffffffffffffffffffffffff1673ffffffffffffffffffffffffffffffffffffffff166323b872dd3330846040518463ffffffff1660e01b8152600401611107939291906123d9565b6020604051808303816000875af1158015611126573d6000803e3d6000fd5b505050506040513d601f19601f8201168201806040525081019061114a9190612288565b5050565b80600860008282546111609190611fb1565b9250508190555080600960003373ffffffffffffffffffffffffffffffffffffffff1673ffffffffffffffffffffffffffffffffffffffff16815260200190815260200160002060008282546111b69190611fb1565b92505081905550600660009054906101000a900473ffffffffffffffffffffffffffffffffffffffff1673ffffffffffffffffffffffffffffffffffffffff166323b872dd3330846040518463ffffffff1660e01b815260040161121c939291906123d9565b6020604051808303816000875af115801561123b573d6000803e3d6000fd5b505050506040513d601f19601f8201168201806040525081019061125f9190612288565b50611269816118ac565b50565b600560009054906101000a900473ffffffffffffffffffffffffffffffffffffffff1681565b60075481565b600033905090565b600073ffffffffffffffffffffffffffffffffffffffff168373ffffffffffffffffffffffffffffffffffffffff161415611310576040517f08c379a000000000000000000000000000000000000000000000000000000000815260040161130790612482565b60405180910390fd5b600073ffffffffffffffffffffffffffffffffffffffff168273ffffffffffffffffffffffffffffffffffffffff161415611380576040517f08c379a000000000000000000000000000000000000000000000000000000000815260040161137790612514565b60405180910390fd5b80600160008573ffffffffffffffffffffffffffffffffffffffff1673ffffffffffffffffffffffffffffffffffffffff16815260200190815260200160002060008473ffffffffffffffffffffffffffffffffffffffff1673ffffffffffffffffffffffffffffffffffffffff168152602001908152602001600020819055508173ffffffffffffffffffffffffffffffffffffffff168373ffffffffffffffffffffffffffffffffffffffff167f8c5be1e5ebec7d5bd14f71427d1e84f3dd0314c0f7b2291e5b200ac8c7c3b9258360405161145e9190611d3e565b60405180910390a3505050565b60006114778484610e3e565b90507fffffffffffffffffffffffffffffffffffffffffffffffffffffffffffffffff81146114f157818110156114e3576040517f08c379a00000000000000000000000000000000000000000000000000000000081526004016114da90612580565b60405180910390fd5b6114f084848484036112a0565b5b50505050565b600073ffffffffffffffffffffffffffffffffffffffff168373ffffffffffffffffffffffffffffffffffffffff161415611567576040517f08c379a000000000000000000000000000000000000000000000000000000000815260040161155e90612612565b60405180910390fd5b600073ffffffffffffffffffffffffffffffffffffffff168273ffffffffffffffffffffffffffffffffffffffff1614156115d7576040517f08c379a00000000000000000000000000000000000000000000000000000000081526004016115ce906126a4565b60405180910390fd5b6115e2838383611b5b565b60008060008573ffffffffffffffffffffffffffffffffffffffff1673ffffffffffffffffffffffffffffffffffffffff16815260200190815260200160002054905081811015611668576040517f08c379a000000000000000000000000000000000000000000000000000000000815260040161165f90612736565b60405180910390fd5b8181036000808673ffffffffffffffffffffffffffffffffffffffff1673ffffffffffffffffffffffffffffffffffffffff16815260200190815260200160002081905550816000808573ffffffffffffffffffffffffffffffffffffffff1673ffffffffffffffffffffffffffffffffffffffff16815260200190815260200160002060008282546116fb9190611fb1565b925050819055508273ffffffffffffffffffffffffffffffffffffffff168473ffffffffffffffffffffffffffffffffffffffff167fddf252ad1be2c89b69c2b068fc378daa952ba7f163c4a11628f55a4df523b3ef8460405161175f9190611d3e565b60405180910390a3611772848484611b60565b50505050565b6000600c60003373ffffffffffffffffffffffffffffffffffffffff1673ffffffffffffffffffffffffffffffffffffffff1681526020019081526020016000206001015490506000600c60003373ffffffffffffffffffffffffffffffffffffffff1673ffffffffffffffffffffffffffffffffffffffff16815260200190815260200160002060010181905550600660009054906101000a900473ffffffffffffffffffffffffffffffffffffffff1673ffffffffffffffffffffffffffffffffffffffff1663a9059cbb83836040518363ffffffff1660e01b8152600401611864929190612233565b6020604051808303816000875af1158015611883573d6000803e3d6000fd5b505050506040513d601f19601f820116820180604052508101906118a79190612288565b505050565b6000600b8054905090506000806000806000670de0b6b3a7640000905060005b86811015611b5157600b81815481106118e8576118e7612756565b5b9060005260206000200160009054906101000a900473ffffffffffffffffffffffffffffffffffffffff169550600c60008773ffffffffffffffffffffffffffffffffffffffff1673ffffffffffffffffffffffffffffffffffffffff1681526020019081526020016000206002015492508188600754848661196b9190612785565b611975919061280e565b61197f9190612785565b611989919061280e565b600c60008873ffffffffffffffffffffffffffffffffffffffff1673ffffffffffffffffffffffffffffffffffffffff168152602001908152602001600020600001546119d69190611fb1565b9450818860075484866119e99190612785565b6119f3919061280e565b6119fd9190612785565b611a07919061280e565b600c60008873ffffffffffffffffffffffffffffffffffffffff1673ffffffffffffffffffffffffffffffffffffffff16815260200190815260200160002060010154611a549190611fb1565b93506000604051806080016040528087815260200186815260200185815260200160011515815250905080600c6000600b8581548110611a9757611a96612756565b5b9060005260206000200160009054906101000a900473ffffffffffffffffffffffffffffffffffffffff1673ffffffffffffffffffffffffffffffffffffffff1673ffffffffffffffffffffffffffffffffffffffff16815260200190815260200160002060008201518160000155602082015181600101556040820151816002015560608201518160030160006101000a81548160ff021916908315150217905550905050508080611b499061283f565b9150506118cc565b5050505050505050565b505050565b505050565b600081519050919050565b600082825260208201905092915050565b60005b83811015611b9f578082015181840152602081019050611b84565b83811115611bae576000848401525b50505050565b6000601f19601f8301169050919050565b6000611bd082611b65565b611bda8185611b70565b9350611bea818560208601611b81565b611bf381611bb4565b840191505092915050565b60006020820190508181036000830152611c188184611bc5565b905092915050565b600080fd5b600073ffffffffffffffffffffffffffffffffffffffff82169050919050565b6000611c5082611c25565b9050919050565b611c6081611c45565b8114611c6b57600080fd5b50565b600081359050611c7d81611c57565b92915050565b6000819050919050565b611c9681611c83565b8114611ca157600080fd5b50565b600081359050611cb381611c8d565b92915050565b60008060408385031215611cd057611ccf611c20565b5b6000611cde85828601611c6e565b9250506020611cef85828601611ca4565b9150509250929050565b60008115159050919050565b611d0e81611cf9565b82525050565b6000602082019050611d296000830184611d05565b92915050565b611d3881611c83565b82525050565b6000602082019050611d536000830184611d2f565b92915050565b600080600060608486031215611d7257611d71611c20565b5b6000611d8086828701611c6e565b9350506020611d9186828701611c6e565b9250506040611da286828701611ca4565b9150509250925092565b6000819050919050565b6000611dd1611dcc611dc784611c25565b611dac565b611c25565b9050919050565b6000611de382611db6565b9050919050565b6000611df582611dd8565b9050919050565b611e0581611dea565b82525050565b6000602082019050611e206000830184611dfc565b92915050565b600060ff82169050919050565b611e3c81611e26565b82525050565b6000602082019050611e576000830184611e33565b92915050565b600060208284031215611e7357611e72611c20565b5b6000611e8184828501611ca4565b91505092915050565b600060208284031215611ea057611e9f611c20565b5b6000611eae84828501611c6e565b91505092915050565b60008060408385031215611ece57611ecd611c20565b5b6000611edc85828601611c6e565b9250506020611eed85828601611c6e565b9150509250929050565b611f0081611c45565b82525050565b6000602082019050611f1b6000830184611ef7565b92915050565b7f4e487b7100000000000000000000000000000000000000000000000000000000600052602260045260246000fd5b60006002820490506001821680611f6857607f821691505b60208210811415611f7c57611f7b611f21565b5b50919050565b7f4e487b7100000000000000000000000000000000000000000000000000000000600052601160045260246000fd5b6000611fbc82611c83565b9150611fc783611c83565b9250827fffffffffffffffffffffffffffffffffffffffffffffffffffffffffffffffff03821115611ffc57611ffb611f82565b5b828201905092915050565b7f596f7520617265206e6f742061207368617265686f6c64657200000000000000600082015250565b600061203d601983611b70565b915061204882612007565b602082019050919050565b6000602082019050818103600083015261206c81612030565b9050919050565b7f596f7520646f206e6f74206861766520656e6f7567682073686172657320746f60008201527f2073656c6c2073656c656374656420616d6f756e740000000000000000000000602082015250565b60006120cf603583611b70565b91506120da82612073565b604082019050919050565b600060208201905081810360008301526120fe816120c2565b9050919050565b60008151905061211481611c8d565b92915050565b6000602082840312156121305761212f611c20565b5b600061213e84828501612105565b91505092915050565b7f52656e74204469676974616c20417373657420636f6e747261637420646f657360008201527f206e6f74206861766520656e6f756768205553445420746f20726566756e642060208201527f7468697320616d6f756e74000000000000000000000000000000000000000000604082015250565b60006121c9604b83611b70565b91506121d482612147565b606082019050919050565b600060208201905081810360008301526121f8816121bc565b9050919050565b600061220a82611c83565b915061221583611c83565b92508282101561222857612227611f82565b5b828203905092915050565b60006040820190506122486000830185611ef7565b6122556020830184611d2f565b9392505050565b61226581611cf9565b811461227057600080fd5b50565b6000815190506122828161225c565b92915050565b60006020828403121561229e5761229d611c20565b5b60006122ac84828501612273565b91505092915050565b7f596f7520646f206e6f74206861766520616e792070726f636565647320746f2060008201527f7769746864726177000000000000000000000000000000000000000000000000602082015250565b6000612311602883611b70565b915061231c826122b5565b604082019050919050565b6000602082019050818103600083015261234081612304565b9050919050565b7f45524332303a2064656372656173656420616c6c6f77616e63652062656c6f7760008201527f207a65726f000000000000000000000000000000000000000000000000000000602082015250565b60006123a3602583611b70565b91506123ae82612347565b604082019050919050565b600060208201905081810360008301526123d281612396565b9050919050565b60006060820190506123ee6000830186611ef7565b6123fb6020830185611ef7565b6124086040830184611d2f565b949350505050565b7f45524332303a20617070726f76652066726f6d20746865207a65726f2061646460008201527f7265737300000000000000000000000000000000000000000000000000000000602082015250565b600061246c602483611b70565b915061247782612410565b604082019050919050565b6000602082019050818103600083015261249b8161245f565b9050919050565b7f45524332303a20617070726f766520746f20746865207a65726f20616464726560008201527f7373000000000000000000000000000000000000000000000000000000000000602082015250565b60006124fe602283611b70565b9150612509826124a2565b604082019050919050565b6000602082019050818103600083015261252d816124f1565b9050919050565b7f45524332303a20696e73756666696369656e7420616c6c6f77616e6365000000600082015250565b600061256a601d83611b70565b915061257582612534565b602082019050919050565b600060208201905081810360008301526125998161255d565b9050919050565b7f45524332303a207472616e736665722066726f6d20746865207a65726f20616460008201527f6472657373000000000000000000000000000000000000000000000000000000602082015250565b60006125fc602583611b70565b9150612607826125a0565b604082019050919050565b6000602082019050818103600083015261262b816125ef565b9050919050565b7f45524332303a207472616e7366657220746f20746865207a65726f206164647260008201527f6573730000000000000000000000000000000000000000000000000000000000602082015250565b600061268e602383611b70565b915061269982612632565b604082019050919050565b600060208201905081810360008301526126bd81612681565b9050919050565b7f45524332303a207472616e7366657220616d6f756e742065786365656473206260008201527f616c616e63650000000000000000000000000000000000000000000000000000602082015250565b6000612720602683611b70565b915061272b826126c4565b604082019050919050565b6000602082019050818103600083015261274f81612713565b9050919050565b7f4e487b7100000000000000000000000000000000000000000000000000000000600052603260045260246000fd5b600061279082611c83565b915061279b83611c83565b9250817fffffffffffffffffffffffffffffffffffffffffffffffffffffffffffffffff04831182151516156127d4576127d3611f82565b5b828202905092915050565b7f4e487b7100000000000000000000000000000000000000000000000000000000600052601260045260246000fd5b600061281982611c83565b915061282483611c83565b925082612834576128336127df565b5b828204905092915050565b600061284a82611c83565b91507fffffffffffffffffffffffffffffffffffffffffffffffffffffffffffffffff82141561287d5761287c611f82565b5b60018201905091905056fea2646970667358221220bf9885a572867fee62c24e7ece16e23884c51ba11a7d0943ac008530685422c764736f6c634300080c0033",
  "linkReferences": {},
  "deployedLinkReferences": {}
}